:020000040800F2
:1000000000000220252A00086D2A00086D2A000839
:100010006D2A00086D2A00086D2A00080000000003
:100020000000000000000000000000006D2A000831
:100030006D2A0008000000006D2A00086D2A0008E3
:100040006D2A00086D2A00086D2A00086D2A000834
:100050006D2A00086D2A00087D0C00086D2A000832
:100060006D2A00086D2A00086D2A00086D2A000814
:100070006D2A00086D2A00086D2A00086D2A000804
:10008000C50C00086D2A00086D2A00086D2A0008BA
:100090006D2A00086D2A00086D2A00086D2A0008E4
:1000A0006D2A00086D2A00086D2A00086D2A0008D4
:1000B0006D2A00086D2A00086D2A00086D2A0008C4
:1000C0006D2A00086D2A00086D2A00086D2A0008B4
:1000D0006D2A00086D2A0008151900086D2A00080D
:1000E0006D2A00086D2A00086D2A00086D2A000894
:1000F0006D2A00086D2A00086D2A00086D2A000884
:100100006D2A00086D2A00086D2A00086D2A000873
:100110006D2A00086D2A00086D2A00086D2A000863
:100120006D2A00086D2A00086D2A00086D2A000853
:100130006D2A00086D2A00086D2A00086D2A000843
:100140006D2A00086D2A00086D2A00086D2A000833
:100150006D2A00086D2A00086D2A00086D2A000823
:100160006D2A00086D2A00086D2A00086D2A000813
:100170006D2A00086D2A00086D2A00086D2A000803
:080180006D2A00086D2A000839
:1001880010B5054C237833B9044B13B10448AFF3C9
:1001980000800123237010BDAC0500200000000082
:1001A8009845000808B5034B1BB103490348AFF352
:1001B800008008BD00000000B00500209845000838
:1001C800154B002B08BF134B9D46A3F5803A002121
:1001D8008B460F461348144A121A03F0C3FC0F4B00
:1001E800002B00D098470E4B002B00D098470020DA
:1001F800002104000D000D48002802D00C4803F02F
:1002080079FD03F08BFC2000290002F067FB03F066
:1002180075FC00BF0000080000000000000000009E
:1002280000000000AC050020841F0020FD3C0008F1
:10023800093D0008014801F0F5BB00BFC43E0008B5
:10024800014801F0EFBB00BFE43E00080449008804
:100258004B694FF48052824023EA02034B61704796
:10026800000C0240044A008851694FF480538340CF
:100278000B435361704700BF000C0240FFF7E6BF15
:100288000388084A59004FF040701368884023EAF1
:100298000003136010684FF080738B4003431360B2
:1002A800704700BF000C024008B54388042B08D0F3
:1002B800013305499BB2438051F823309847012008
:1002C80008BD002008BD00BF283E000808B54388C7
:1002D80043B1013B04499BB2438051F8233098470E
:1002E800012008BD184608BD283E00084368B3F53C
:1002F800FA6F1DBF6433436001200020704700BFC0
:100308004368642B1DBF643B436001200020704795
:10031800038833B1012B0CD0022B1AD0032B10D039
:10032800704701890F4B104A03EB41039B8A5363C3
:10033800704701890B4B0C4A03EB41039B8A93637B
:1003480070470189074B084A03EB41039B8A1364F2
:10035800E6E70189034B044A03EB41039B8AD36315
:10036800704700BF283E00080008004003880A4A7A
:1003780010B459004FF0407413688C4023EA04030A
:10038800136014684FF000738B40234313605DF8CB
:10039800044BFFF7BDBF00BF000C02400289142ABE
:1003A80006D008B501320281FFF7B2FF012008BD6F
:1003B8000020704708B503890BB9184608BD013BF2
:1003C8000381FFF7A5FF012008BD00BFF0B40D4A67
:1003D8000D4F00F10A053026914205F8016D08D34A
:1003E800312400E01C46891A631C9142DBB2F9D221
:1003F8002C70A7FB0232A8424FEAD202ECD1F0BC23
:10040800704700BF00CA9A3BCDCCCCCC70B400F189
:100418000A06002416F8013D302BE5B21FD00C88DF
:1004280013550B886C1C0133E4B29BB20A2C0B8069
:1004380011D0C5F10805061BEDB2751BC4F10904FE
:100448000835044414F80109D0540B8801339BB2D1
:10045800A5420B80F6D10021D15470BC7047092CFD
:1004680001D00134D6E7088813540B8801339BB2B6
:100478000B80F0E7F0B5083885B080B20023182863
:100488001370ADF8023007D8012404FA00F000F028
:10049800013020F4803008B905B0F0BD0B68002B9E
:1004A80020DB144CDFF850C0194601A80DF10E06E8
:1004B80030278C4206F8017D08D8312500E01D461A
:1004C800091B6B1CA142DBB2F9D23570ACFB0434BA
:1004D800B0424FEAD404ECD10DF10201FFF796FFC8
:1004E80005B0F0BD2D2313700B68ADF802405B42D8
:1004F8000B60D6E700CA9A3BCDCCCCCC1E491F4B2B
:100508001F4A30B40D6B1F4C45F001050D6325687B
:1005180045F428452560256A45F0AA4545F4A00517
:100528002562A56845F42845A5600C6B44F01004C5
:100538000C631C6844F040041C605C6824F00804E8
:100548005C609C6844F080049C605C6944F008042A
:100558005C614B6C042443F480534B64148013880F
:1005680043F440731380138818431080138843F0B2
:100578004003138030BC704700380240001002402E
:100588000030014000000240084A0023938113898B
:100598009807FCD5054A1389D907FCD5034A13895E
:1005A8001B06FCD49089C0B2704700BF00300140E0
:1005B800074A908113899807FCD5054A1389D907FA
:1005C800FCD5034A13891B06FCD49089C0B2704736
:1005D800003001400B2803460EDC274A82FB03014A
:1005E800A1EBE37101EB41015B1A5BB2012B31D046
:1005F800022B09D0DBB17047204A214802EB830364
:1006080053F81C1C01F042BA1E491F4B91F9001007
:100618001B4882FB01C2A2EBE17252B202EB42021A
:1006280003EB8202118901EB810101F02FBA154910
:10063800154B91F90010114882FB01C2A2EBE1723F
:1006480052B202EB420203EB8202538850F82300B5
:1006580001F0E8B90B490C4B91F90010084882FBEE
:1006680001C2A2EBE17252B202EB420203EB820238
:10067800516801F00BBA00BF56555555683E000841
:10068800043F00085C010020EC00002038B51C4C39
:1006980094F900300B2B15DD1A4D55F82330984787
:1006A80068B3194B94F90020184853F8221001F048
:1006B800EDF994F90000FFF78DFF1548BDE83840C3
:1006C80001F0B0B9134A0F4D134882FB0312A2EB95
:1006D800E37202EB42015B1A5BB252B205EB830391
:1006E80002EB420200EB82005B6A98470028D8D1EF
:1006F80094F9003055F8233098470028D1D138BDF7
:100708005C010020683E00081C010020083F00082A
:10071800703F000856555555EC00002038B51D4C63
:1007280094F900300B2B16DD1B4D05EB8303DB69B9
:10073800984770B3194B94F90020194853F82210C0
:1007480001F0A4F994F90000FFF744FF1548BDE84B
:10075800384001F067B914490F4D144881FB032153
:10076800A1EBE37101EB41029A1A52B249B205EBCF
:10077800820201EB410100EB8100136C98470028CD
:10078800D8D194F9003005EB8303DB69984700283A
:10079800D0D138BD5C010020683E00081C01002053
:1007A800083F0008703F000856555555EC000020DA
:1007B80038B5184C94F900305A1C29D0DBB1164DC5
:1007C800164855F8231001F061F994F90000FFF775
:1007D80001FF23781248013B5BB2237055F82310C0
:1007E80001F054F994F90000FFF7F4FE0D48BDE854
:1007F800384001F017B90C4801F014F90B4A0C4BBA
:10080800528853F8220001F00DF92378013B237038
:1008180038BD00BF5C0100201C010020283F0008F3
:10082800083F0008703F0008183F0008EC0000204F
:10083800683E000838B51A4C94F900300F2B2DD0BB
:100848005A1C1BD0174D184855F8231001F01EF9F3
:1008580094F90000FFF7BEFE2378144801335BB219
:10086800237055F8231001F011F994F90000FFF7EF
:10087800B1FE0F48BDE8384001F0D4B80D4801F08A
:10088800D1F80D4A0D4B528853F8220001F0CAF8EE
:10089800074801F0C7F823780133237038BD00BF3B
:1008A8005C0100201C010020283F0008083F0008C8
:1008B800703F0008343F0008EC000020683E000844
:1008C80038B51F491F4B0A6893FBF2F39BB22DED15
:1008D800068B0B828BB3D1ED017ADFED1B6A1B4CC3
:1008E8009FED1B7A9FED1B8ADFED1BAA9FED1BAACC
:1008F800F8EEE77A06EE102AC7EEA69A013B9BB2FD
:10090800A51C05EB4305F8EEC68AB7EE089A68EE13
:10091800878A28EE880A02F081F9F0EE497AE9EE32
:10092800807A38EE0A8A67EEAA7AFCEEE77A17EE42
:10093800903A24F8023BA542EBD1BDEC068B38BDBA
:10094800D4000020A08601000000C842480600200C
:10095800D00FC9400000000000F07F45ACC5273724
:10096800094908B54B68002B06DBCA68002AB8BFDE
:1009780052421A44312A05D001334B60FFF7A0FFD9
:10098800012008BD002008BDD4000020094A08B590
:100998005368002B06DCD1680029B8BF4942C91A40
:1009A800312905D0013B5360FFF78AFF012008BDBC
:1009B800002008BDD4000020094A08B5136842F297
:1009C80010718B4209D0074964330020A1F8D00781
:1009D8001360FFF775FF012008BD002008BD00BFA8
:1009E800D400002048060020084A08B51368642B84
:1009F80009D00749643B0020A1F8D0071360FFF72E
:100A08005FFF012008BD002008BD00BFD400002002
:100A18004806002038B51D491D4B8A6893FBF2F340
:100A28009BB22DED068B4B826BB3D1ED037ADFEDD4
:100A3800196A194C9FED197A9FED198A9FED19AA29
:100A4800DFED199AF8EEE77A06EE102A87EEA69AF5
:100A5800013B9BB2A51C05EB4305F8EEC68A68EE80
:100A6800878A28EE880A02F0D9F829EE000A38EEBB
:100A7800298A20EE0A0ABCEEC00A10EE103A24F8C1
:100A8800023BAC42EDD1BDEC068B38BDD400002052
:100A9800A08601000000C8421C0E0020D00FC940EB
:100AA8000000000000F07F45ACC52737094908B5AC
:100AB800CB68002B06DB4A68002AB8BF52421A44AA
:100AC800312A05D00133CB60FFF7A4FF012008BD10
:100AD800002008BDD4000020094A08B5D368002BBF
:100AE80006DC51680029B8BF4942C91A312905D026
:100AF800013BD360FFF78EFF012008BD002008BD31
:100B0800D4000020094A08B5936842F210718B425C
:100B180009D0074964330020A1F8D0079360FFF794
:100B280079FF012008BD002008BD00BFD4000020C7
:100B380048060020084A08B59368642B09D007497D
:100B4800643B0020A1F8D0079360FFF763FF012002
:100B580008BD002008BD00BFD400002048060020C2
:100B6800F0B4194A194E1A4CB6F8D037108A558A7B
:100B780004F57A77B3FBF5F205FB1232B3FBF0F11B
:100B880092B200FB113106EB420289B20133B2F88E
:100B9800D4C736F811109BB2B3FBF0F200FB123247
:100BA800614492B224F8021F3AB9B3FBF5F205FB8F
:100BB800123292B2002A08BF0023A742DAD1A6F85F
:100BC800D037F0BC704700BFD40000204806002092
:100BD800D6190020F0B4194A194E1A4CB6F8D03775
:100BE800108A558A04F57A77B3FBF5F205FB1232C1
:100BF800B3FBF0F192B200FB113106EB420289B26D
:100C08000133B2F8D4C736F811109BB2B3FBF0F237
:100C180000FB1232614492B224F8021F3AB9B3FBC6
:100C2800F5F205FB123292B2002A08BF0023A74250
:100C3800DAD1A6F8D037F0BC704700BFD400002046
:100C480048060020EE15002008B5FFF739FEFFF72B
:100C5800E1FEFFF785FFBDE80840FFF7BBBF00BF17
:100C6800034B1B69DB0701D5FFF7E4BAFFF7E8BAC6
:100C7800000002400D4B5B69DB0715D510B40C4A28
:100C88000C4813780C4CDBB2591CC9B2117011789E
:100C980040F82340642904BF00231370034B5DF818
:100CA800044B01225A617047704700BF003C014065
:100CB800EC150020CC1D0020690C0008104A1149D1
:100CC800D368114843F4006310B4D3600B780F491C
:100CD80053B90B780E4CDBB25A1CD2B20A7040F8EA
:100CE80023405DF8044B70470B780A4CDBB25A1C62
:100CF800D2B20A7040F823405DF8044B704700BF39
:100D080000600240E8000020CC1D0020EC15002007
:100D1800DD0B0008690B000838B50446264800F0CA
:100D280081FE2146254800F0B1FE254800F07AFEF4
:100D3800302C244819D900F075FE0D2419217C2087
:100D480000F08EFE204800F06DFE0A217C2000F0A5
:100D580087FE1E4800F066FE21467C2000F080FEDB
:100D68001B48BDE8384000F05DBE00F05BFE192C62
:100D7800A5B208D829467C2000F072FE1448BDE8C8
:100D8800384000F04FBE232C11D819217C2000F0E8
:100D980067FE0D4800F046FEA5F119017C2089B2D6
:100DA80000F05EFE0A48BDE8384000F03BBEA5F101
:100DB8002304A4B2C2E700BF643F0008043F000850
:100DC800783F0008883F0008903F0008983F0008D7
:100DD800A03F000810B52DED068B84B003A800F0E5
:100DE80035FC9DF90E309FED439A9FED43AA434C85
:100DF80009EE903A9DF90D30F8EEE99A08EE903A2E
:100E080069EEA9AAF8EEE88AF0EE6A7AE8EEA87A1E
:100E18009DF90C3008EE103A17EE900A01F006FA28
:100E280041EC100B01F044FFB8EEC88A53EC102BCC
:100E380018EE100ACDE9002301F0F8F9DDE90023E6
:100E480001F076FB01F0FAFC00EE100A01F00CFE4E
:100E580020EE090A28EE088AC0EE0A7A3AEE887A65
:100E6800C4ED007A17EE100A01F0E0F941EC100B1E
:100E780001F01EFF53EC102B18EE900ACDE9002369
:100E880001F0D4F9DDE9002301F052FB01F0D6FCB2
:100E980000EE100A01F0E8FD20EE090AA8EEA88A83
:100EA800C0EE0A7A18EE100AC4ED017A01F0BEF914
:100EB80041EC100B01F0FCFE19EE900A8DED000BD1
:100EC80001F0B4F99DED000B02460B4651EC100BF6
:100ED80001F02EFB01F0B2FC00EE100A01F0C4FD97
:100EE80020EE090AC0EE0A7AC4ED027A04B0BDEC1D
:100EF800068B10BD00003443C3F54840C01D0020D8
:100F080038B5144D1448154C00F08CFDD5ED007A19
:100F1800FDEEE77A204617EE901A00F0B7FD10486C
:100F280000F080FDD5ED017AFDEEE77A204617EE58
:100F3800901A00F0ABFD0B4800F074FDD5ED027A75
:100F4800FDEEE77A204617EE901ABDE8384000F02B
:100F58009DBD00BFC01D0020A83F0008043F000839
:100F6800BC3F0008CC3F000808B564212D2000F0E4
:100F780077FD074800F056FD7C2000F023FD202077
:100F8800622100F06DFD0348BDE8084000F04ABD4D
:100F9800DC3F0008E03F000808B5094800F042FDC2
:100FA8006221202000F05CFD064800F03BFD2D206A
:100FB800642100F055FD0448BDE8084000F032BD4A
:100FC800E03F0008E43F0008DC3F000808B50521C1
:100FD800202000F045FD104800F024FD0F4800F0E7
:100FE80021FD0B21202000F03BFD0D4800F01AFDEB
:100FF8001021202000F034FD0A4800F013FD0821DC
:10100800202000F02DFD084800F00CFD07212020CD
:10101800BDE8084000F024BDE83F0008A03F0008F4
:10102800F03F000800400008144000082DE9F8438C
:101038009048914EDFF89C92DFF89C828F4F904C3D
:10104800904D00F0EFFC904800F0ECFC8F4800F069
:10105800E9FC8F4800F0E6FCFFF786FF1A21202004
:1010680000F0FEFC8B4800F0DDFC1B21202000F086
:10107800F7FC304600F0D6FC7C2000F0A3FC1A21D7
:10108800202000F0EDFC844800F0CCFC402120201A
:1010980000F0E6FC304600F0C5FC7C2000F092FC35
:1010A8001A21202000F0DCFC7C4800F0BBFC442125
:1010B800202000F0D5FCFFF76FFF484600F0B2FC97
:1010C800FFF752FFFFF782FF484600F0ABFCFFF73F
:1010D80063FF404600F0A6FCFFF746FFFFF776FFE8
:1010E800404600F09FFCFFF757FF384600F09AFC97
:1010F800FFF73AFFFFF76AFF384600F093FCFFF767
:101108004BFF204600F08EFCFFF72EFFFFF75EFF37
:10111800204600F087FCDFF8C481614C614FFFF77F
:101128003BFF284600F07EFC64212D2000F098FC4F
:10113800404600F077FC204600F074FC5A4800F066
:1011480071FC1D21202000F08BFC284600F06AFC71
:101158007C2000F037FC0F21202000F081FC204685
:1011680000F060FC514800F05DFC0E21202000F0EA
:1011780077FC284600F056FC4D4800F053FC32211D
:10118800202000F06DFC7C2000F01CFC14212020A5
:1011980000F066FC474800F045FC1321202000F0D1
:1011A8005FFC304600F03EFC64212D2000F058FC26
:1011B800384600F037FC64212D2000F051FC4046F1
:1011C80000F030FC0B21202000F04AFC204600F003
:1011D80029FC394800F026FC1921202000F040FCA9
:1011E800364800F01FFC1C21202000F039FC344850
:1011F80000F018FC1121202000F032FC284600F0F5
:1012080011FC304600F00EFC64212D2000F028FC73
:10121800384600F007FCFFF7A7FE0A21202000F05F
:101228001FFC204600F0FEFB264800F0FBFB0A21CD
:10123800202000F015FC244800F0F4FB17212020A2
:1012480000F00EFC214800F0EDFB0A21202000F000
:1012580007FC1F4800F0E6FB284600F0E3FB2020CF
:10126800082100F0FDFBFFF797FE2046BDE8F84394
:1012780000F0D8BB28400008E43F0008983F000869
:10128800883F0008904000083040000838400008B7
:1012980040400008444000087440000880400008AE
:1012A800A03F0008DC3F00089C400008B44000084C
:1012B800E03F0008C8400008DC400008E44000089F
:1012C800EC400008F440000800410008084100080C
:1012D8001441000888400008903F00089840000822
:1012E80070B5FFF7B1FC3F4C3F4E2D2000F0A4FA3B
:1012F8002D2000F0CBFAFFF799FE00F073FC00F008
:101308001DF900F055F900F0EBFA226B3749384B1C
:10131800384842F0010222630A6822F003020A6098
:10132800626C42F48042626400250122B5601A6052
:10133800596821F0010159609A604021DA604FF440
:10134800803301600360206C2B4B2C492C4A40F001
:1013580004002064532018854FF47A70D862188BE3
:1013680040F068001883188B40F4D0401883988B9D
:1013780040F068009883988B40F4D0409883188C8C
:101388000140198418881F4940F084001880988A01
:1013980040F001009882188C40F4885040F0110009
:1013A8001884188840F001001880236B164843F011
:1013B80008032363136843F0AA4313605368536018
:1013C800936843F07F4393605561536A43F0085331
:1013D80043F408135362BDE870404FF4FA7200F00A
:1013E800A9B900BF0038024000380140000002409F
:1013F800003C014000E100E000080040DDDDFFFFA7
:10140800000C0240F0150020D81900201749184A8E
:101418000B6C43F0400330B40B64532584234FF422
:101428007A741585D4621380938A43F001039382FA
:10143800138843F00103138050B1138ADB07FCD5EE
:10144800138A23F001031B041B0C01381382F4D107
:101458000749064A0B8823F001031B041B0C0B8069
:10146800136C23F04003136430BC7047003802400B
:10147800001800401749184A0B6C43F0400330B479
:101488000B640025842354241585D4621380938A21
:1014980043F001039382138843F00103138050B192
:1014A800138ADB07FCD5138A23F001031B041B0CEA
:1014B80001381382F4D10849064A0B8823F0010346
:1014C8001B041B0C0B80136C23F04003136430BC0B
:1014D800704700BF003802400018004009490A4B15
:1014E8000A6C30B442F008020A6453254FF0FF3406
:1014F800002284201D85DC62188030BC9A805A62E4
:10150800704700BF00380240000C0040044B9A8A24
:1015180042F001029A821A8842F001021A8070474A
:10152800000C0040044A506A138823F001031B048E
:101538001B0C1380704700BF000C00400E490A6C5A
:101548004FF0804342F0010230B484200A644AF22A
:101558000F4500224FF0FF341D85DC6218809A8009
:101568005A629A8A42F001029A821A8842F001026B
:101578001A8030BC704700BF003802404FF08043EB
:10158800586A4008704700BF4FF080435B6A5B08A9
:10159800834205D30844984294BF00200120704735
:1015A800C043184488422CBF00200120704700BF68
:1015B80010B5254C2020FEF7A1FF636923F008032E
:1015C80063612020FEF7F4FF4720FEF7F1FF63690F
:1015D80043F0080363616420FFF718FF636923F091
:1015E80008036361A020FEF7E3FFFEF7CDFF636900
:1015F80043F008036361636923F008036361A12072
:10160800FEF7D6FFFEF7C0FF636943F00803636186
:10161800636923F008036361A220FEF7C9FFFEF7A0
:10162800B3FF636943F008036361636923F0080348
:1016380063618F20FEF7BCFFFEF7A6FF636943F0E6
:101648000803636110BD00BF0010024070B5244C50
:101658000025057045708570636923F0080382B022
:1016680063610646A720FEF7A3FFFEF78DFF6369B7
:1016780043F0080363616420FFF7FCFE0095ADF8B2
:101688000450636923F008036361A920FEF790FF03
:101698006C460DF10605FEF777FF04F8010BAC4226
:1016A800F9D10F4C636943F0080363619DF800109A
:1016B8009DF802209DF8043031707270B370636930
:1016C80023F0080363612020FEF772FF4720FEF72E
:1016D8006FFF636943F00803636102B070BD00BF28
:1016E800001002400A4A0B4B116B0B4841F00101F4
:1016F8001163116C41F0005111641A6842F4407290
:101708001A60DA683D2122F44072DA60016070479D
:10171800003802400000024000740040044A536848
:10172800DB07FCD4C0F30B000123906053607047C3
:1017380000740040394B70B41D6B394E394C45F07C
:1017480001051D63356845F4407535601E6C364DDE
:1017580046F010061E64532626850A26E66284266D
:1017680026802026A680A68A46F00106A68226881C
:1017780046F0010626801C6C2C4E44F000541C6474
:101788002C6824F001042C604FF480542C602C68E1
:1017980044F004042C602C6844F001042C601C6B99
:1017A800002544F400141C63334635601C68E407C4
:1017B800FCD41F4C1F4E4FF0FF35A560E5609E60BE
:1017C800D86019615A601A6842F060621A601A6833
:1017D80042F440321A601A6842F480621A601A6849
:1017E80022F480721A601A6842F480221A601A6819
:1017F80042F400621A601A6842F400521A601A68C9
:1018080042F040021A601A6842F010021A601A6820
:1018180042F001021A6070BC704700BF00380240F5
:101828000000024000100040007400408860024040
:101838000060024008740040114A124B116B41F0DD
:10184800010110B41163116C0F4C41F400311164A3
:101858001A6842F0A0021A601A6A42F4EE421A624A
:101868009A6842F020029A609A6880B242F0800238
:1018780042F208019A602081A1815DF8044B70470B
:10188800003802400000024000440040114A124B58
:10189800116B41F0080110B41163116C0F4C41F445
:1018A800802111641A6842F420221A605A6A42F0B0
:1018B80077025A629A6842F400329A609A6880B253
:1018C80042F4002242F208019A602081A1815DF869
:1018D800044B704700380240000C024000480040AA
:1018E800084A0949938923F400531B041B0C402020
:1018F80093814860938943F4005343F02403938110
:10190800704700BF0044004000E100E0254B1A8802
:10191800920606D5244A9B881178DBB211B91B2B95
:101928001AD07047012912D0412B30B417D0422B5E
:101938002AD0432B30D0442B1C4B1BD01978642958
:1019480001D1002119700023137030BC70475B2B44
:101958001FD000231370E4E7012313707047134B63
:10196800134C1978134DC9B2481CC0B2187044F80A
:101978002150E3E719780E4C0F4DC9B2481CC0B28C
:1019880044F821501870D9E7084B094C19780B4DC9
:10199800E9E7022313707047044B054C1978084D8A
:1019A800E1E700BF00440040EE150020EC150020E0
:1019B800CC1D002095060008B90700082507000877
:1019C8003D080008034A13885B06FCD580B2908066
:1019D800704700BF00440040034A13885B06FCD5EB
:1019E80080B29080704700BF004800400C4B9A8935
:1019F80042F4005242F004029A811A889206FCD5F9
:101A080098881A8822F020021204120C1A809A89E7
:101A180022F004021204120CC0B29A81704700BF6F
:101A28000048004070B404788CB10C4A0546002187
:101A38000D2613885B06FCD5A4B294802B780A2B5C
:101A480007D0013189B24518445C002CF1D170BC33
:101A5800704713885B06FCD59680F2E70044004087
:101A680089B110B4084A4C1EA4B280B24FF6FF7177
:101A780013885B06FCD5013CA4B28C429080F7D158
:101A88005DF8044B70477047004400400FB4F0B550
:101A98008DB012AB53F8046B019332781AB300245B
:101AA800314D234631460D27252A0DD133445A7826
:101AB80092B1642A32D0732A29D0632A1DD0002318
:101AC80000930134A4B207E02B885806FCD592B2E3
:101AD800AA800B780A2B0BD00134A4B22346325DBE
:101AE8003119002AE0D10DB0BDE8F04004B07047CC
:101AF8002B885B06FCD5AF80EEE7019B191D1A7891
:101B080001912B885B06FCD593B2AB80D9E7019B8A
:101B18001A1D18680192FFF785FFD2E79B78019A92
:101B2800622B02F104011AD0682B13D0772B18BF4F
:101B380004F1FF341368009318BFA4B20191202068
:101B480002AA6946FEF796FC013402A8A4B2FFF780
:101B580069FFB6E713681020CDE90031F0E7136894
:101B68000820CDE90031EBE7004400401249134A50
:101B7800086B134B40F0010070B40863486C114CBB
:101B880040F480704864116841F00C011160D1681C
:101B980021F00C01D1604FF40066002001254FF4BC
:101BA80000714FF440325E60D860D8625D6399601E
:101BB800626070BC704700BF0038024000000240FD
:101BC8000020014000230140054A936843F4800344
:101BD800936013685B07FCD5D06B80B2704700BF79
:101BE800002001401049114B4A6C114830B442F4AE
:101BF800807200244A645C605A6842F480525A60D9
:101C08004FF4E01510244FF440324FF40071DD60BA
:101C18009C63996042609A6842F001029A600A20C7
:101C280030BCFFF727BC00BF00380240002001404D
:101C38000023014019491A4A4B6843F400034B60DA
:101C4800936843F48003936013685B07FCD5D16BFA
:101C5800144B124889B240F6B83202FB01F2A3FBDA
:101C68000213D21A03EB5203DB0AA3F53E7307EE05
:101C7800903AF8EEE77AF0EE046A87EEA67A4368BF
:101C880023F400034360F3EE097A77EE277AFCEE3B
:101C9800E77A17EE903A98B2704700BF00230140E8
:101CA8000020014001011000F0B4484D484E2F6B50
:101CB800484BDFF834C1484C47F004072F633768B6
:101CC80047F440673760F76827F44067F7606E6C41
:101CD8004FF4006746F480766E645F6000260F2735
:101CE800DE60DE621E635F634FF400779F604FF42F
:101CF8008037CCF80470D5F840C0384F4CF0020C4F
:101D0800C5F840C04FF0630CA4F828C04FF0540C3D
:101D1800C4F82CC04FF0840CA4F800C04FF0200C7D
:101D2800A680A4F804C0B4F814C04CF0010CA4F8C0
:101D380014C0B4F800C04CF0010CA4F800C04FF473
:101D480080749C609C6844F400749C609C6844F0B7
:101D580080549C609C6844F000649C609C6844F0DB
:101D680001049C602B6B43F480032B633C463E606C
:101D7800236813F00103FBD1194D1A4E2B606B60D9
:101D8800A660E06021616260236823F060632360DD
:101D9800236843F440332360236843F4806323605B
:101DA800236843F480232360236843F4006323609B
:101DB800236843F400532360236823F0C00323609F
:101DC800236843F001032360F0BC704700380240E9
:101DD8000008024000200140000400401064024056
:101DE800006402404C20014000230140C84500081F
:101DF80000000020AC050020AC050020841F002056
:101E0800384B39481A68002142F001021A6099607B
:101E18001A6822F0847222F480321A6058601A68B4
:101E280082B022F480221A60D960009101911A6868
:101E380042F480321A601A4603E0009BB3F5A06FA3
:101E480009D0136803F400330193009B0133009316
:101E5800019B002BF1D0234B1B6813F4003318BFF0
:101E680001230193019B012B0BD0204BD3F8882031
:101E78004FF0006142F47002C3F88820996002B004
:101E88007047184B1A491A6C1A4842F080521A6463
:101E98000A6842F480420A609A689A609A6842F432
:101EA80000429A609A6842F4A0529A6058601A6890
:101EB80042F080721A601A689201FCD50E49094AEC
:101EC80040F205600860996821F0030199609968FB
:101ED80041F002019960936803F00C03082BFAD1D2
:101EE800C3E700BF003802401030002400ED00E0D6
:101EF8000070004008544007003C0240154A9368AF
:101F080003F00C03042B23D0082B09D0124B114AE1
:101F180012499268C2F303128A5CD3400B6170477E
:101F28005068516852684302C2F3881201F03F01B9
:101F38004CBF0B4B084BB3FBF1F303FB02F3054A11
:101F48005268C2F3014201325200B3FBF2F3DEE7FA
:101F5800034BDCE7003802400024F4006401002051
:101F680000127A0081F0004102E000BF83F00043D4
:101F780030B54FEA41044FEA430594EA050F08BF1C
:101F880090EA020F1FBF54EA000C55EA020C7FEAE0
:101F9800645C7FEA655C00F0E2804FEA5454D4EB5D
:101FA8005555B8BF6D420CDD2C4480EA020281EA27
:101FB800030382EA000083EA010180EA020281EA5F
:101FC8000303362D88BF30BD11F0004F4FEA0131B1
:101FD8004FF4801C4CEA113102D0404261EB4101C0
:101FE80013F0004F4FEA03334CEA133302D0524246
:101FF80063EB430394EA050F00F0A780A4F1010402
:10200800D5F1200E0DDB02FA0EFC22FA05F280183B
:1020180041F1000103FA0EF2801843FA05F3594121
:102028000EE0A5F120050EF1200E012A03FA0EFCA0
:1020380028BF4CF0020C43FA05F3C01851EBE371CA
:1020480001F0004507D54FF0000EDCF1000C7EEBE7
:1020580000006EEB0101B1F5801F1BD3B1F5001F25
:102068000CD349085FEA30004FEA3C0C04F1010444
:102078004FEA445212F5800F80F09A80BCF1004F6D
:1020880008BF5FEA500C50F1000041EB045141EAEF
:10209800050130BD5FEA4C0C404141EB010111F4F0
:1020A800801FA4F10104E9D191F0000F04BF01469B
:1020B8000020B1FA81F308BF2033A3F10B03B3F179
:1020C80020020CDA0C3208DD02F1140CC2F10C0209
:1020D80001FA0CF021FA02F10CE002F11402D8BF67
:1020E800C2F1200C01FA02F120FA0CFCDCBF41EA33
:1020F8000C019040E41AA2BF01EB0451294330BD02
:102108006FEA04041F3C1CDA0C340EDC04F11404DE
:10211800C4F1200220FA04F001FA02F340EA0300B5
:1021280021FA04F345EA030130BDC4F10C04C4F1FB
:10213800200220FA02F001FA04F340EA03002946DB
:1021480030BD21FA04F0294630BD94F0000F83F425
:10215800801306BF81F480110134013D4EE77FEA08
:10216800645C18BF7FEA655C29D094EA050F08BF54
:1021780090EA020F05D054EA000C04BF1946104635
:1021880030BD91EA030F1EBF0021002030BD5FEA79
:10219800545C05D14000494128BF41F0004130BDA1
:1021A80014F580043CBF01F5801130BD01F00045F5
:1021B80045F0FE4141F470014FF0000030BD7FEA68
:1021C800645C1ABF194610467FEA655C1CBF0B4663
:1021D800024650EA013406BF52EA033591EA030F7A
:1021E80041F4002130BD00BF90F0000F04BF002172
:1021F800704730B54FF4806404F132044FF00005A5
:102208004FF0000150E700BF90F0000F04BF00211D
:10221800704730B54FF4806404F1320410F0004583
:1022280048BF40424FF000013EE700BF42004FEA7E
:10223800E2014FEA31014FEA02701FBF12F07F43FB
:1022480093F07F4F81F06051704732F07F4208BFB2
:10225800704793F07F4F04BF41F40021704730B5B9
:102268004FF4607401F0004521F000411CE700BF05
:1022780050EA010208BF704730B54FF000050AE088
:1022880050EA010208BF704730B511F0004502D589
:10229800404261EB41014FF4806404F132045FEA8B
:1022A800915C3FF4D8AE4FF003025FEADC0C18BF34
:1022B80003325FEADC0C18BF033202EBDC02C2F126
:1022C800200300FA03FC20FA02F001FA03FE40EAB8
:1022D8000E0021FA02F11444BDE600BF70B54FF0BC
:1022E800FF0C4CF4E06C1CEA11541DBF1CEA13559A
:1022F80094EA0C0F95EA0C0F00F0DEF82C4481EA02
:10230800030621EA4C5123EA4C5350EA013518BF21
:1023180052EA033541F4801143F4801338D0A0FB0E
:1023280002CE4FF00005E1FB02E506F00042E0FBBB
:1023380003E54FF00006E1FB03569CF0000F18BFC1
:102348004EF0010EA4F1FF04B6F5007F64F5407469
:1023580004D25FEA4E0E6D4146EB060642EAC621FC
:1023680041EA55514FEAC52040EA5E504FEACE2E69
:10237800B4F1FD0C88BFBCF5E06F1ED8BEF1004F6C
:1023880008BF5FEA500E50F1000041EB045170BDE8
:1023980006F0004646EA010140EA020081EA03012C
:1023A800B4EB5C04C2BFD4EB0C0541EA045170BD28
:1023B80041F480114FF0000E013C00F3AB8014F1A2
:1023C800360FDEBF002001F0004170BDC4F10004EB
:1023D800203C35DA0C341BDC04F11404C4F120056C
:1023E80000FA05F320FA04F001FA05F240EA0200C7
:1023F80001F0004221F0004110EBD37021FA04F6FD
:1024080042EB06015EEA430E08BF20EAD37070BDB6
:10241800C4F10C04C4F1200500FA04F320FA05F015
:1024280001FA04F240EA020001F0004110EBD37017
:1024380041F100015EEA430E08BF20EAD37070BD87
:10244800C4F1200500FA05F24EEA020E20FA04F360
:1024580001FA05F243EA020321FA04F001F000410F
:1024680021FA04F220EA020000EBD3705EEA430E80
:1024780008BF20EAD37070BD94F0000F0FD101F0AF
:102488000046400041EB010111F4801F08BF013CE8
:10249800F7D041EA060195F0000F18BF704703F026
:1024A8000046520043EB030313F4801F08BF013DAD
:1024B800F7D043EA0603704794EA0C0F0CEA135569
:1024C80018BF95EA0C0F0CD050EA410618BF52EA23
:1024D8004306D1D181EA030101F000414FF0000029
:1024E80070BD50EA410606BF1046194652EA430637
:1024F80019D094EA0C0F02D150EA013613D195EAAB
:102508000C0F05D152EA03361CBF104619460AD1F2
:1025180081EA030101F0004141F0FE4141F47001FC
:102528004FF0000070BD41F0FE4141F4780170BDEC
:1025380070B54FF0FF0C4CF4E06C1CEA11541DBF51
:102548001CEA135594EA0C0F95EA0C0F00F0A7F853
:10255800A4EB050481EA030E52EA03354FEA013180
:1025680000F088804FEA03334FF0805545EA131393
:1025780043EA12634FEA022245EA111545EA10655B
:102588004FEA00260EF000419D4208BF964244F1F2
:10259800FD0404F5407402D25B084FEA3202B61A11
:1025A80065EB03055B084FEA32024FF480104FF4E5
:1025B800002CB6EB020E75EB030E22BFB61A754659
:1025C80040EA0C005B084FEA3202B6EB020E75EBEC
:1025D800030E22BFB61A754640EA5C005B084FEA54
:1025E8003202B6EB020E75EB030E22BFB61A754621
:1025F80040EA9C005B084FEA3202B6EB020E75EB2C
:10260800030E22BFB61A754640EADC0055EA060EEC
:1026180018D04FEA051545EA16754FEA06164FEA2F
:10262800C30343EA52734FEAC2025FEA1C1CC0D1DB
:1026380011F4801F0BD141EA00014FF000004FF068
:10264800004CB6E711F4801F04BF01430020B4F129
:10265800FD0C88BFBCF5E06F3FF6AFAEB5EB030CE1
:1026680004BFB6EB020C5FEA500C50F1000041EBDE
:10267800045170BD0EF0004E4EEA113114EB5C04AB
:10268800C2BFD4EB0C0541EA045170BD41F480117E
:102698004FF0000E013C90E645EA060E8DE60CEA86
:1026A800135594EA0C0F08BF95EA0C0F3FF43BAFA3
:1026B80094EA0C0F0AD150EA01347FF434AF95EA5A
:1026C8000C0F7FF425AF104619462CE795EA0C0F3E
:1026D80006D152EA03353FF4FDAE1046194622E70B
:1026E80050EA410618BF52EA43067FF4C5AE50EAE5
:1026F80041047FF40DAF52EA43057FF4EBAE12E7D5
:102708004FF0FF3C06E000BF4FF0010C02E000BFB5
:102718004FF0010C4DF804CD4FEA410C7FEA6C5C98
:102728004FEA430C18BF7FEA6C5C1BD001B050EA3B
:10273800410C0CBF52EA430C91EA030F02BF90EA26
:10274800020F0020704710F1000F91EA030F58BFE5
:10275800994208BF90422CBFD8176FEAE37040F047
:10276800010070474FEA410C7FEA6C5C02D150EAE5
:10277800013C07D14FEA430C7FEA6C5CD6D152EAA0
:10278800033CD3D05DF8040B704700BF8446104665
:1027980062468C461946634600E000BF01B5FFF764
:1027A800B7FF002848BF10F1000F01BD4DF808ED34
:1027B800FFF7F4FF0CBF012000205DF808FB00BF05
:1027C8004DF808EDFFF7EAFF34BF012000205DF85F
:1027D80008FB00BF4DF808EDFFF7E0FF94BF0120AC
:1027E80000205DF808FB00BF4DF808EDFFF7CEFFAD
:1027F80094BF012000205DF808FB00BF4DF808EDEC
:10280800FFF7C4FF34BF012000205DF808FB00BFBC
:102818004FEA410C7FEA6C5C02D150EA013C0AD1D4
:102828004FEA430C7FEA6C5C02D152EA033C02D1C6
:102838004FF0000070474FF0010070474FEA410227
:10284800B2F1E04324BFB3F5001CDCF1FE5C0DD906
:1028580001F0004C4FEAC0024CEA5070B2F1004F50
:1028680040EB830008BF20F00100704711F0804F53
:1028780021D113F13872BCBF01F00040704741F418
:1028880080114FEA5252C2F11802C2F1200C10FA1C
:102898000CF320FA02F018BF40F001004FEAC12300
:1028A8004FEAD32303FA0CFC40EA0C0023FA02F3A4
:1028B8004FEA4303CCE77FEA625307D150EA01337A
:1028C8001EBF4FF0FE4040F44000704701F000404A
:1028D80040F0FE4040F40000704700BF2DE9F04F83
:1028E80083B0FEF7FDFCFEF749FE8346FEF746FE81
:1028F8008246FEF743FE0090FEF740FE0190FEF789
:102908003DFEFEF73BFE0646FFF794F9FEF704FA94
:102918003E4C3F4F3F4DDFF800814FF00009627891
:1029280023789A420CD06378DBB25A1CD2B257F89B
:102938002330627098476378642B08BF84F801904D
:10294800EB88032B1CD06B8A032B2BD0EB8B032B30
:102958003AD06B8D032B49D064213046FEF714FE24
:102968000028DCD1FEF736FAFEF7CAFAFEF706FEB3
:10297800627823789A420646D5D1EB88032BE2D1B8
:10298800A9685846FEF700FE0028DCD1D8F81430B4
:1029980083F48053C8F81430FEF7F0FD6B8A032BDC
:1029A8008346D3D169695046FEF7EEFD0028CDD1A4
:1029B800D8F8143083F40053C8F81430FEF7DEFD5D
:1029C800EB8B032B8246C4D1296A0098FEF7DCFD05
:1029D8000028BED1D8F8143083F48043C8F81430E6
:1029E800FEF7CCFD6B8D0090032BB5D1E96A0198F9
:1029F800FEF7CAFD0028AFD1D8F8143083F400439D
:102A0800C8F81430FEF7BAFD0190A5E7EC150020D0
:102A1800CC1D0020E8000020000C0240002103E04B
:102A28000B4B5B58435004310A480B4B42189A42EF
:102A3800F6D30A4A02E0002342F8043B084B9A42C4
:102A4800F9D3FFF7DDF901F069F8FFF747FF7047A1
:102A5800C845000800000020AC050020AC05002097
:102A6800841F0020FEE7000038B510EE105A25F04C
:102A78000044B4F1A14FF0EE407A0BDBB4F1FF4F04
:102A880058DCDFED4F7A9FED4F0A002DD8BFB0EE2E
:102A9800670A38BD4C4B9C425BDCB4F1445F4CDBAD
:102AA8004FF0FF3367EEA76ADFED481ADFED482ADB
:102AB8009FED482A9FED483ADFED483A9FED484A96
:102AC800DFED484A9FED485ADFED485A9FED480A26
:102AD8009FED486A26EEA67A5A1CE7EE212AA7EE51
:102AE800023AE2EE873AA3EE074AE3EE874AA4EEFB
:102AF800075AE4EE875AA5EE070AA5EE876A20EE84
:102B0800070AA6EE260A20EE270A37D03A493B4A9A
:102B18009B00194491ED007A30EE470A134430EED9
:102B2800670AD3ED007A002D37EEC00AB1DAB1EEAC
:102B3800400A38BD30EE000A38BD9FED317A30EEDC
:102B4800077AF7EE006AB4EEE67AF1EE10FAA7DD3E
:102B580038BD00F05BF82B4B9C4212DCA3F5D00388
:102B68009C4223DCF0EE007ABFEE007AA0EE277AD2
:102B7800002330EE270AC7EE007A93E737EEC00A43
:102B880038BD214B9C420BDCF7EE087AB7EE007A91
:102B9800A0EE277A022330EE670AC0EE077A81E7B3
:102BA800BFEE007AC7EE007A03237BE7F7EE007AE0
:102BB80030EE677A30EE270A0123C7EE007A71E714
:102BC800DB0FC9BFDB0FC93FFFFFDF3ED769853C7D
:102BD80059DA4B3D21A215BD6BF16EBD356B883DB1
:102BE80095879DBD6E2EBA3D388EE3BD2549123EB0
:102BF800CDCC4CBEABAAAA3EAC4100089C41000813
:102C0800CAF24971FFFF973FFFFF1B4010EE103AD1
:102C180023F0004300EE103A704700BF00B510EEF5
:102C2800103A214A23F00043934283B01ADDB3F1EE
:102C3800FF4F04DB30EE400A03B05DF804FB684642
:102C480000F05CF900F00300012813D0022820D01E
:102C5800B8B1DDED010A9DED000A00F09BFAB1EE76
:102C6800400AE9E70020DFED110A00F03DFE03B05D
:102C78005DF804FBDDED010A9DED000A00F08AFA1B
:102C8800DAE70120DDED010A9DED000A00F02CFED7
:102C9800D2E70120DDED010A9DED000A00F024FED7
:102CA800B1EE400AC8E700BFD80F493F0000000056
:102CB8002DE9F0432DED028B8BB055EC104B00F055
:102CC80053F8274BB0EE408AF0EE608A93F9006023
:102CD800731C12D022462B4620462946FFF798FD42
:102CE800074650B94FF000084FF000092046294622
:102CF80042464B46FFF764FD40B9B0EE480AF0EE95
:102D0800680A0BB0BDEC028BBDE8F0830122154BBD
:102D180008970092CDE90445CDE90245019396B1A3
:102D280042464B4640464946FFF702FC022ECDE993
:102D380006010AD100F0DCFE21230360089B53B989
:102D48009DED068BD9E7CDE90689684600F014FEAB
:102D58000028F3D1EEE700F0CBFE089B0360EFE715
:102D680078010020BC4100082DE9F041624A57EC87
:102D7800106BBA4300F09580002F3B4610EE101AF6
:102D8800344654DD3F1500F0AF80C3F31303A7F2B8
:102D9800FF3743F48013E20FF90702EB43034FEACE
:102DA800440503D5ED0F05EB4303A50000267F106E
:102DB800B44616224FF400110CEB010098424FEA7A
:102DC800D5744FEA450503DC1B1A00EB010C0E44D1
:102DD800013A04EB43034FEA5101EDD11046964600
:102DE80020244FF0004209E052D05B00013C03EB85
:102DF800D5734FEA52024FEA450536D0634502EBD8
:102E08000E01F1DD002901EB020E0ADBE046A3EB1F
:102E18000C03A94288BF03F1FF336D1A1044C4465E
:102E2800E3E7BEF1000FF1DB0CF10108EFE727F053
:102E3800004232432AD0002F49D1CA0A153B49051E
:102E4800002AFAD012F4801001D050E02046520037
:102E5800D50200F10104F9D5C4F1200501FA04F402
:102E6800E9401F1A41EA02038FE72B4329D144089E
:102E78007110F30701F17F5101F5001148BF44F0CB
:102E8800004401EB0753224643EC102BBDE8F081C8
:102E9800A942AAD8002901EB020EC2DB98460023FA
:102EA800BBE710EE102A3B4610EE100A3946FFF732
:102EB80015FA32463B46FFF75BF841EC100BBDE8CC
:102EC800F081421C16BF421C01365408D0E710EEB0
:102ED800102A30463946FFF749F802460B46FFF7F5
:102EE80027FB41EC100BD1E71A463B46AAE70C46F4
:102EF80020254FF0FF30B3E70000F07F70B510EEEB
:102F0800103A964A23F00044944286B0054669DD9B
:102F1800934A944210EE106A1ADC002B24F00F0436
:102F2800DFED907A904A64DD944270EE677A00F0A3
:102F3800CF809FED8E7A77EEC76A012077EEE67A2A
:102F4800C5ED006A77EEC77AC5ED017A06B070BDA7
:102F5800874A944261DDB4F1FF4F80F2B180E215F7
:102F6800863AA4EBC25307EE903ABDEEE77ADFED5E
:102F7800816AB8EEC77A77EEC77A8DED037A67EE85
:102F8800A67ABDEEE77AB8EEC77A77EEC77A8DED06
:102F9800047A67EEA67AF5EE407AF1EE10FACDEDF6
:102FA800057A40F0C780B5EE407AF1EE10FA0CBF12
:102FB80001230223704901910221009103A82946A7
:102FC80000F06AF9002E12DA95ED007AD5ED017A53
:102FD800B1EE477AF1EE677A404285ED007AC5EDA9
:102FE800017A04E0002285ED000A4260002006B064
:102FF80070BD944270EE277A00F089809FED5B7A6D
:1030080077EE876A4FF0FF3077EEE67AC5ED006A13
:1030180077EE877AC5ED017AE9E7FFF7F7FDDFED8F
:10302800576ADFED505A9FED517AF6EE007AE0EEDE
:10303800267AFDEEE77A17EE900AF8EEE76A1F287F
:10304800B1EE666AA6EE250A66EE877A52DD30EEA4
:10305800677A17EE103AE415C3F3C753E31A082B3F
:1030680052DDDFED477A9FED477AF0EE405AE6EE03
:10307800275A30EE650AA6EE270AF0EE407AD6EE19
:10308800877A35EEE77A17EE103AC3F3C753E41A96
:10309800192C51DC85ED007AB0EE650A30EE470A4E
:1030A800002E30EE670A85ED010AA0DAB1EE477A04
:1030B800B1EE400A85ED007A85ED010A404296E7B7
:1030C80070EE407A0020C5ED017AC5ED007A8EE7F2
:1030D800DFED2B6A9FED2B7A77EEE67A012077EE0B
:1030E800C76A77EEE67AC5ED006A77EEC77AC5ED6E
:1030F800017A7CE7421E244B53F8223024F0FF0269
:103108009A4230EE677AA4D085ED007AC6E7DFED03
:103118001C6A9FED1C7A77EEA67A4FF0FF3077EEA7
:10312800876A77EEE67AC5ED006A77EE877AC5EDAD
:10313800017A5CE703233DE79FED147A9FED145A6B
:10314800B0EE650AA6EE070A75EEC07AE6EE077AD3
:10315800D6EE857A30EE677AD6E700BFD80F493FBA
:10316800E3CB1640800FC93FD00FC93F43443537E2
:10317800800F4943000080434442000884F9223FFD
:103188000044353708A3852EC441000800A3852EC6
:1031980032318D2410EE103A23F00043B3F1485F2A
:1031A8002CDAFDEEC07A17EE903A002B5BD020EEB9
:1031B800007ADFED314A9FED315ADFED315A9FED4C
:1031C800316ADFED317ADFED316AA7EE245AE7EE96
:1031D800055AA7EE256AE7EE067AE7EE276A66EE55
:1031E800876A60EEC00AB6EE006AE7EE260AF7EED6
:1031F800007AD7EE060A37EEE00A704720EE007A2A
:10320800DFED1D4A9FED1D5ADFED1D5A9FED1D6A2A
:10321800DFED1D7ADFED1D6A1D4AA7EE245A9342A1
:10322800E5EE075AA5EE876AE6EE077AE7EE876AC3
:1032380066EE876AD5DD174A934217DC03F17F43B0
:1032480007EE903AB7EE006A36EE676A60EEC00A9B
:10325800F6EE005AE7EE260AD7EE257A77EEE07A00
:1032680036EE670A7047B7EE000A7047B6EE076A8F
:10327800F5EE027AEAE700BF4ED747ADF6740F3194
:103288007CF293B4010DD037610BB6BAABAA2A3DD4
:103298009999993E0000483F2DE9F04F2DED048B98
:1032A800D7B003F1FF390293D31E48BF131DB24CA8
:1032B800649D0591DB1023EAE37354F825600393BA
:1032C80003F10108A2EBC80816EB09028646A3EB36
:1032D800090316D41A449FEDA97A6598511C1AAAB5
:1032E800002BA4BF50F8234007EE904A03F10103D6
:1032F800ACBFF8EEE77AF0EE477A8B42E2EC017A5F
:10330800EED1029B002E4FEA83044FEA860A1DDBAA
:103318001AAB181943AA7346191902EB0A0742ADEA
:10332800F446B9F1000FDFED957A09DB02466346F2
:10333800F3EC016A32ED017A8B42E6EE877AF7D137
:10334800E5EC017ABD4200F10400EAD1AAF10803D4
:1033580006ADEB1804939FED8B9ADFED898A0096F2
:1033680005ABB34674449A4442AF76464FEA8B01A4
:1033780056AB0B44BBF1000F13ED140A16DD07EB37
:103388008B032A4660EE097AB0EE407AFDEEE77AC2
:1033980073ED016AF8EEE77ABB42A7EEE87A37EEFA
:1033A800A60ABDEEC77AA2EC017AEBD1404601919C
:1033B80000F02AFBB0EE408AB4EE000A28EE000ABC
:1033C80000F0DCFAF2EE007AA0EE678AB8F1000F9E
:1033D8000199FDEEC89AF8EEE97A38EE678A40F36B
:1033E800C4800BF1FF3CC8F1080355F82C2042FAC1
:1033F80003F000FA03F3D31A45F82C3019EE90CAFB
:103408008444C8F1070209EE90CA43FA02F2002A7E
:1034180031DD19EE903ABBF1000F03F1010309EE1B
:10342800903A40F329822868002840F08680BBF152
:10343800010F0BD0AE464FF0010C5EF8040F0CF1F3
:10344800010300287CD19B459C46F6D1B8F1000FBA
:103458000EDDB8F1010F00F03281B8F1020F07D18B
:103468000BF1FF3155F8213003F03F0345F82130C7
:10347800022A00F01281B5EE408AF1EE10FA40F00F
:103488009580009B0BF1FF3C63450EDC0BF18041FE
:10349800013905EB8101002051F80439514540EA12
:1034A8000300F9D1002840F01381009B013B55F837
:1034B8002330002B40F00081049B4FF0010C53F89F
:1034C80004290CF1010C002AF9D0DC440BF1010E9F
:1034D800E64530DC039B029A0EEB03015A4403EBEA
:1034E8000C0B1AAB01F1804103EB8202659B013999
:1034F80003EB810107EB8E0E03EB8B0B51F8043FB6
:103508009FED1E7A07EE903AF8EEE77A1046B9F189
:10351800000FE0EC017A09DB334601E072ED017A35
:10352800F3EC016AA342A6EEA77AF7D15945AEECAF
:10353800017A0246E2D1E34618E701234FF0000C76
:10354800C0F580709B4545F82C000CDD55F823002C
:10355800294405EB830300E01868C0F1FF0043F835
:10356800040B8B42F8D1012070E70FD10BF1FF3328
:1035780055F8232012124AE7884500080000000089
:10358800000080430000803B0000C93FF6EE007A4F
:10359800B4EEE78AF1EE10FA80F25881B5EE408A6F
:1035A800F1EE10FA4FF000023FF46BAFB0EE480AAC
:1035B800C8F100009146009E00F026FA1FED107A2F
:1035C800B4EEC70AF1EE10FAC0F258815FED137A33
:1035D80060EE277A0BF10103FDEEE77A08F108089F
:1035E800F8EEE77AA7EEC70AFDEEE77ABDEEC00A65
:1035F80010EE102A45F82B2017EE902A45F82320C4
:103608004046B7EE000A009300F0FEF9009B002B3D
:10361800C0F24B81980042AA00F1040C1FED277AF2
:103628001044011D05EB0C0272ED017AF8EEE77A01
:10363800AA4267EE807A20EE070A61ED017AF3D19B
:103648000DF1B80E1FED306A0546774603F1010803
:103658000024002EC0F20581A148DFEDA27A294698
:10366800B0EE467A002203E0A24208DCB0EC017A10
:10367800F1EC016A01329642E6EE877AF4DA013417
:103688004445E7EC017AA5F10405E2D1649A032ADE
:1036980053D8DFE802F0CAB6B65BB7EE000A30EEE0
:1036A800488A00283FF4E7AE4046019200F0ACF9A2
:1036B800019A38EE408ADEE64FF0010C05E70BF17F
:1036C800FF3155F8213003F07F0345F82130CFE66C
:1036D800914655F82C20009E6346A8F10808002A58
:1036E8008ED10CF18042013A05EB820252F804199E
:1036F800013BA8F108080029F8D081E74A46DFED28
:10370800797A002A40F0C2809DED2E7A059A002B26
:10371800C2ED007A77EE677A0CDD2FA90122B1ECB1
:10372800017A0132934277EE877AF8DA4B46002B1A
:1037380040F0B880059BC3ED017A19EE903A03F08A
:10374800070057B0BDEC048BBDE8F08F002B40F3A9
:10375800C480980056AA02440DF1B80E03F18041C6
:1037680052ED286A01390EEB830272ED017A37EEC9
:10377800A67A964577EEC77A82ED007A77EEA67A32
:10378800F0EE476AC2ED017AEFD1012B40F3A58034
:1037980056AB184489000B1D50ED286A73442FAAB4
:1037A80073ED017A37EEA67A9A4277EEC77A83EDFF
:1037B800007A77EEA67AF0EE476AC3ED017AEFD188
:1037C8000831DFED487A0EEB01030EF1080E33EDF8
:1037D800017A9E4577EE877AF9D14B46DDED2E6A60
:1037E8009DED2F7A2BB1F1EE666AB1EE477AF1EED4
:1037F800677A059BC3ED006A83ED017AC3ED027A0F
:103808009BE7002BFFF67AAF2EA901EB8302DFEDD1
:10381800357A043232ED017A914277EE877AF9D11E
:103828004A46002A3FF470AF30E0DFED2E7AF444C8
:103838003CED017AE64577EE877AF9D14B460BB134
:10384800F1EE677A059BC3ED007A76E719EE903AB8
:10385800BBF1000F03F1010309EE903A37DD0222B4
:10386800E1E5DFED207A01344445E7EC017AA5F182
:1038780004057FF4EEAE09E70020E7E5BDEEC00AD7
:103888005B4610EE102A45F82B20B9E6DDED2E6ACE
:10389800059AB1EE677A002B76EEE77A82ED007A28
:1038A8003FF73BAFF1EE677A44E7649A032A3FF6A5
:1038B80044AF01A151F822F0D13800080B380008B4
:1038C8000B38000855370008DFED067AB6E7F7EE43
:1038D800007A37EEC88A0222CDE5DFED027A7CE76E
:1038E800604500080000000010EE103A23F0004385
:1038F800B3F1485F04DAFDEEC07A17EE903A23B3CD
:1039080060EE007A9FED155ADFED155A9FED156AA6
:10391800DFED156A9FED157AE7EE855A20EE275AF6
:10392800A5EEA76AE6EE276AA6EEA77A70B127EE9B
:10393800457AF6EE006AA0EEA67ADFED0D6AD7EEBC
:10394800270AE5EE260A30EE600A7047DFED096ABD
:10395800E7EE876AA6EE850A704700BFD3C92E2F07
:10396800342FD7B21BEF3836010D50B98988083C7F
:10397800ABAA2A3EABAA2ABE0020704710EE102A36
:1039880022F00041CB0D7F3B162B1CDC002B10EEE8
:10399800100A1EDB194919410A4227D0DFED187AAF
:1039A80070EE277AF5EEC07AF1EE10FA1EDD002AE5
:1039B80004DA4FF4000242FA03F3184420EA010340
:1039C80000EE103A7047B1F1FF4F0FD330EE000A06
:1039D8007047DFED0B7A70EE277AF5EEC07AF1EEDC
:1039E80010FA03DD002A02DB9FED060A7047002962
:1039F800FFEE007A18BFB0EE670A7047FFFF7F003E
:103A0800CAF249710000000008B510EE103A33F010
:103A180000422DED028B11D0B2F1FF4F11D2B2F559
:103A2800000F13D3D20D0244FE2A1CDC002A2ADD23
:103A380023F0FF4343EAC25300EE103ABDEC028B79
:103A480008BDBDEC028B30EE000A08BD1D4BDFED52
:103A58001E7A984220EE270A10DB10EE103AC3F3C4
:103A6800C752193ADFE79FED198AF0EE400AB0EE27
:103A7800480A00F031F820EE080ADFE7DFED140A03
:103A880020EE200ADAE712F1160F0EDA4CF2503364
:103A98009842E8DC9FED0E8AF0EE400AB0EE480A44
:103AA80000F01AF820EE080AC8E7193223F0FF439D
:103AB80043EAC253DFED077A00EE103A20EE270AF8
:103AC800BCE700BFB03CFFFF0000004CCAF24971E0
:103AD8006042A20D0000003310EE103A10EE902A5A
:103AE80023F0004302F00042134300EE103A7047FF
:103AF800014B1868704700BF7C01002008B5002101
:103B0800044600F083F8044B1868C36B03B1984768
:103B1800204600F04BFD00BF9445000870B50D4EDF
:103B28000D4D761BB61006D00024013455F8043B21
:103B38009847A642F9D1094E094D761B00F02AFD97
:103B4800B61006D00024013455F8043B9847A64225
:103B5800F9D170BDBC450008BC450008C445000843
:103B6800BC450008F0B4860743D0541E002A3ED056
:103B7800CAB2034602E014F1FF3438D303F8012B2C
:103B88009D07F8D1032C2BD9CDB245EA05250F2C7A
:103B980045EA054516D9A4F110073F0903F12006A7
:103BA80006EB071603F1100242E9045542E90255F3
:103BB8001032B242F8D104F00F040137032C03EBA2
:103BC80007130DD91E462246043A032A46F8045B19
:103BD800FAD8221F22F003020432134404F003042B
:103BE8002CB1C9B21C4403F8011B9C42FBD1F0BCA8
:103BF800704714460346C5E7024B13B1024800F06C
:103C080079B8704700000000093D00082DE9F04F21
:103C1800354B85B00F460390186800F095F8334B84
:103C28001B68019303F5A4730293B946019BD3F86B
:103C380048613EB3DDF808A04FF001087468651EBE
:103C48000FD4013406EB84040027B9F1000F20D00B
:103C5800D4F800314B451CD0013D6B1CA4F1040481
:103C6800F3D1234B73B1D6E90032002A34D1002BAB
:103C780032D03046CAF80030AFF30080DAF800607E
:103C8800002EDBD1184B186805B0BDE8F04F00F0E6
:103C980063B873682268013BAB420CBF756027604C
:103CA800002AD9D0D6F88811D6F804B008FA05F356
:103CB8000B4208D1904773685B45B7D1DAF80030FA
:103CC800B342C9D0B2E7D6F88C01D4F880100342C9
:103CD80007D103989047EEE7B2461E46002EADD1B5
:103CE800D0E708469047E6E7A80500209445000875
:103CF80000000000002301461A46184600F02EB8BE
:103D080038B50A4C0A4D641BA4100AD004F180434C
:103D1800013B05EB8305013C55F804399847002C15
:103D2800F9D1BDE8384000F03BBC00BFC8450008E9
:103D3800C4450008704700BF704700BF704700BF08
:103D4800704700BF704700BF704700BF0120704731
:103D580001207047704700BF704700BF2DE9F84346
:103D68002B4D0646286898460F469146FFF7ECFF0C
:103D7800284B1C68D4F84831002B3DD05A681F2ABC
:103D88000DDC02F1010C16BB0232C3F804C028682E
:103D980043F82270FFF7E0FF0020BDE8F8831E4BD0
:103DA8007BB34FF4C870AFF30080034648B3D4F830
:103DB80048210021C0E900214FF0010CC4F8480156
:103DC8000A46C0F88811C0F88C11002EDCD003EB2D
:103DD80082010124C1F88890D3F8880194402043D7
:103DE800022EC3F88801C1F80881CDD1D3F88C110F
:103DF8000C43C3F88C41C7E704F5A673C4F84831EF
:103E0800BCE72868FFF7A8FF4FF0FF30C5E700BF01
:103E1800A80500209445000800000000FEE700BF48
:103E2800550200086D020008850200088902000892
:103E380075030008000001000200030005000800E7
:103E48000B00110017001F00270032003D00510031
:103E58006D00AC00EB007401FD01F202E703000005
:103E6800483F0008503F0008543F0008583F0008EA
:103E7800603F0008640000001400000064000000B7
:103E880014000000B1020008F5020008A5030008AC
:103E9800C1090008690900080D0B0008B50A0008E7
:103EA800D502000809030008BD030008F10900084D
:103EB800950900083D0B0008E10A00081B5B333335
:103EC8003B3733481B5B38581B5B33326D414354D7
:103ED8004956451B5B33396D000000001B5B3333CB
:103EE8003B3733481B5B36581B5B33316D494E41BA
:103EF80043544956451B5B33396D00002564000067
:103F08001B5B2573481B5B35581B5B34316D000008
:103F18001B5B31333B3330481B5B355800000000D6
:103F28001B5B2573481B5B35580000001B5B313356
:103F38003B3330481B5B35581B5B34316D00000048
:103F480049444C45000000004F4E00004F464600D3
:103F5800424C494E4B00000050574D001B5B33321A
:103F68003B3234481B5B35581B5B34396D0000000D
:103F78001B5B33333B33481B5B343858000000006D
:103F88001B5B33346D0000001B5B33336D00000096
:103F98001B5B33316D0000001B5B33396D00000083
:103FA8001B5B33363B3138481B5B35581B5B343958
:103FB8006D0000001B5B33363B3438481B5B3558BB
:103FC800000000001B5B33363B3833481B5B355819
:103FD800000000000A0000007C0A7C007C0A000047
:103FE8004C454420310000004D6F64653A2020495B
:103FF800444C452000000000506572696F643A2007
:104008002031303030205B6D735D00004475747969
:10401800206379636C653A20203530200000000069
:104028001B5B324A000000001B5B313B314800003B
:104038001B5B33356D0000000A0A0A004D696B727C
:104048006F70726F6365736F72736B6920736973D6
:1040580074656D6920752074656C656B6F6D756E20
:10406800696B6163696A616D610000005A6164612E
:10407800636120310000000032303231000000005E
:104088001B5B33326D0000001B5B33366D00000094
:104098000A7C000020202020204350552074656DA4
:1040A80070657261747572653A00000050757368C6
:1040B8002D427574746F6E2073746174653A0000D4
:1040C8001B5B33316D494E4143544956451B5B33A5
:1040D800366D000072686F3A200000007068693A17
:1040E8002000000074686574613A200066313A2047
:1040F8003130302020487A0061313A20302E3200A9
:1041080066323A203130302020487A0061323A2035
:10411800302E320031333B333000000031333B3630
:104128003000000031333B393000000031383B3378
:104138003000000031383B363000000031383B3960
:104148003000000032333B333000000032333B365E
:104158003000000032333B393000000032383B3346
:104168003000000032383B363000000032383B392E
:104178003000000034303B313600000034303B332F
:104188003800000034303B363700000034303B380C
:10419800390000003863ED3EDA0F493F5E987B3FF7
:1041A800DA0FC93F6937AC3168212233B40F1433B1
:1041B8006821A2337371727400000000000FC93FB8
:1041C800000F494000CB9640000FC9400053FB4008
:1041D80000CB164100ED2F41000F494100316241EB
:1041E80000537B41003A8A4100CB9641005CA341D1
:1041F80000EDAF41007EBC41000FC94100A0D54190
:104208000031E24100C2EE410053FB4100F203429B
:10421800003A0A420083104200CB164200141D42A5
:10422800005C234200A5294200ED2F4200363642A9
:10423800007E3C4200C74242000F4942A2000000F3
:10424800F9000000830000006E0000004E0000002E
:10425800440000001500000029000000FC000000D8
:104268002700000057000000D1000000F500000002
:1042780034000000DD000000C0000000DB0000008A
:104288006200000095000000990000003C0000005A
:10429800430000009000000041000000FE00000004
:1042A8005100000063000000AB000000DE000000C9
:1042B800BB000000C500000061000000B70000005E
:1042C800240000006E0000003A00000042000000D8
:1042D8004D000000D2000000E000000006000000D1
:1042E800490000002E000000EA000000090000005C
:1042F800D1000000920000001C000000FE00000039
:104308001D000000EB0000001C000000B1000000D0
:1043180029000000A70000003E000000E80000009F
:104328008200000035000000F50000002E000000AB
:10433800BB0000004400000084000000E900000009
:104348009C0000007000000026000000B40000007F
:104358005F0000007E0000004100000039000000FE
:1043680091000000D6000000390000008300000022
:104378005300000039000000F40000009C00000019
:10438800840000005F0000008B000000BD000000FA
:10439800F9000000280000003B0000001F0000009A
:1043A800F800000097000000FF000000DE00000099
:1043B80005000000980000000F000000EF0000005A
:1043C8002F000000110000008B0000005A000000C0
:1043D8000A0000006D0000001F0000006D000000D2
:1043E800360000007E000000CF000000270000001B
:1043F800CB00000009000000B70000004F000000DB
:10440800460000003F000000660000009E0000001B
:104418005F000000EA0000002D00000075000000A9
:1044280027000000BA000000C7000000EB000000F1
:10443800E5000000F10000007B0000003D000000E6
:104448000700000039000000F70000008A000000A3
:104458005200000092000000EA0000006B0000001B
:10446800FB0000005F000000B10000001F0000001A
:104478008D0000005D0000000800000056000000EC
:10448800030000003000000046000000FC000000AF
:104498007B0000006B000000AB000000F000000093
:1044A800CF000000BC000000200000009A000000BF
:1044B800F4000000360000001D000000A900000004
:1044C800E300000091000000610000005E000000B1
:1044D800E60000001B000000080000006500000066
:1044E80099000000850000005F0000001400000033
:1044F800A000000068000000400000008D000000DF
:10450800FF000000D8000000800000004D000000FF
:1045180073000000270000003100000006000000C2
:10452800060000001500000056000000CA00000048
:1045380073000000A8000000C9000000600000002F
:10454800E20000007B000000C00000008C000000BA
:104558006B0000000000C93F0000F0390000DA37A6
:104568000000A2330000842E0000502B0000C22758
:104578000000D0220000C41F0000C61B0000441722
:10458800040000000700000009000000800100206E
:1045980000000000F8B500BFF8BC08BC9E46704794
:0C45A800F8B500BFF8BC08BC9E46704788
:0845B40014BCFF7F01000000B0
:0845BC00013C0008AD010008FC
:0445C4008901000861
:1045C8000000000052499DB96C09F9BA0AD723BB0B
:1045D800F4FDD43BE3C7183D371AC03D1D5A243EAD
:1045E800BC74533EBC74533E1D5A243E371AC03D1A
:1045F800E3C7183DF4FDD43B0AD723BB6C09F9BACD
:1046080052499DB9000000000000000000000000B1
:104618000000000000000000000000000000000092
:104628000000000000000000000000000000000082
:104638000000000000000000000000000000000072
:104648000000000004000020C80500200000000051
:104658000000000000000000000000000000000052
:104668000000000000000000000000000000000042
:104678000000000000000000000000000000000032
:104688000000000000000000000000000000000022
:104698000000000064000000140000006400000036
:1046A80014000000E803E803010000000000000017
:1046B800E80300000A00000001000000E803000011
:1046C8000A00000002000000E80300000A000000E1
:1046D80003000000E80300000A0000001C41000875
:1046E800244100082C410008344100083C410008DE
:1046F800444100084C410008544100085C4100084E
:10470800644100086C410008744100087C410008BD
:10471800844100088C41000894410008FF00000013
:104728000400002000000000000000000102030453
:1047380006070809007A030A01000000800100202A
:10474800000000006C040020D40400203C05002078
:104758000000000000000000000000000000000051
:104768000000000000000000000000000000000041
:104778000000000000000000000000000000000031
:104788000000000000000000000000000000000021
:104798000000000000000000000000000000000011
:1047A8000000000000000000000000000000000001
:1047B80000000000000000000000000000000000F1
:1047C80000000000000000000000000000000000E1
:1047D80000000000000000000000000000000000D1
:1047E80000000000000000000100000000000000C0
:1047F8000E33CDAB34126DE6ECDE05000B00000085
:1048080000000000000000000000000000000000A0
:104818000000000000000000000000000000000090
:104828000000000000000000000000000000000080
:104838000000000000000000000000000000000070
:0C4B68000000000000000000601F0020A2
:0400000508002A25A0
:00000001FF
